{
  "_format": "hh-sol-artifact-1",
  "contractName": "Bet",
  "sourceName": "contracts/Bet.sol",
  "abi": [
    {
      "inputs": [
        {
          "internalType": "address",
          "name": "_assetManagerAddress",
          "type": "address"
        },
        {
          "internalType": "address",
          "name": "_priceFeed",
          "type": "address"
        }
      ],
      "stateMutability": "nonpayable",
      "type": "constructor"
    },
    {
      "inputs": [
        {
          "internalType": "uint256",
          "name": "sent",
          "type": "uint256"
        },
        {
          "internalType": "uint256",
          "name": "required",
          "type": "uint256"
        }
      ],
      "name": "IncorrectPaymentAmount",
      "type": "error"
    },
    {
      "anonymous": false,
      "inputs": [
        {
          "indexed": true,
          "internalType": "address",
          "name": "userAddress",
          "type": "address"
        },
        {
          "indexed": true,
          "internalType": "address",
          "name": "assetAddress",
          "type": "address"
        },
        {
          "indexed": false,
          "internalType": "uint256",
          "name": "amountPaid",
          "type": "uint256"
        },
        {
          "indexed": false,
          "internalType": "uint256",
          "name": "estimate",
          "type": "uint256"
        }
      ],
      "name": "BetPlaced",
      "type": "event"
    },
    {
      "anonymous": false,
      "inputs": [
        {
          "indexed": true,
          "internalType": "address",
          "name": "sender",
          "type": "address"
        },
        {
          "indexed": false,
          "internalType": "uint256",
          "name": "amount",
          "type": "uint256"
        }
      ],
      "name": "Deposit",
      "type": "event"
    },
    {
      "anonymous": false,
      "inputs": [
        {
          "indexed": true,
          "internalType": "address",
          "name": "assetAddress",
          "type": "address"
        },
        {
          "indexed": true,
          "internalType": "address",
          "name": "address1",
          "type": "address"
        },
        {
          "indexed": true,
          "internalType": "address",
          "name": "address2",
          "type": "address"
        },
        {
          "indexed": false,
          "internalType": "uint256",
          "name": "amount1",
          "type": "uint256"
        },
        {
          "indexed": false,
          "internalType": "uint256",
          "name": "amount2",
          "type": "uint256"
        },
        {
          "indexed": false,
          "internalType": "uint256",
          "name": "amount3",
          "type": "uint256"
        }
      ],
      "name": "FundsDistributed",
      "type": "event"
    },
    {
      "inputs": [
        {
          "internalType": "address",
          "name": "",
          "type": "address"
        }
      ],
      "name": "assetBalances",
      "outputs": [
        {
          "internalType": "uint256",
          "name": "",
          "type": "uint256"
        }
      ],
      "stateMutability": "view",
      "type": "function"
    },
    {
      "inputs": [],
      "name": "assetManager",
      "outputs": [
        {
          "internalType": "contract AssetManager",
          "name": "",
          "type": "address"
        }
      ],
      "stateMutability": "view",
      "type": "function"
    },
    {
      "inputs": [
        {
          "internalType": "uint256",
          "name": "",
          "type": "uint256"
        }
      ],
      "name": "bets",
      "outputs": [
        {
          "internalType": "address",
          "name": "userAddress",
          "type": "address"
        },
        {
          "internalType": "address",
          "name": "assetAddress",
          "type": "address"
        },
        {
          "internalType": "uint256",
          "name": "amountPaid",
          "type": "uint256"
        },
        {
          "internalType": "uint256",
          "name": "estimate",
          "type": "uint256"
        },
        {
          "internalType": "uint256",
          "name": "winningAmount",
          "type": "uint256"
        }
      ],
      "stateMutability": "view",
      "type": "function"
    },
    {
      "inputs": [],
      "name": "betsLength",
      "outputs": [
        {
          "internalType": "uint256",
          "name": "",
          "type": "uint256"
        }
      ],
      "stateMutability": "view",
      "type": "function"
    },
    {
      "inputs": [
        {
          "internalType": "address",
          "name": "assetAddress",
          "type": "address"
        }
      ],
      "name": "distributeFunds",
      "outputs": [],
      "stateMutability": "nonpayable",
      "type": "function"
    },
    {
      "inputs": [
        {
          "internalType": "address",
          "name": "assetAddress",
          "type": "address"
        }
      ],
      "name": "getAssetBalance",
      "outputs": [
        {
          "internalType": "uint256",
          "name": "",
          "type": "uint256"
        }
      ],
      "stateMutability": "view",
      "type": "function"
    },
    {
      "inputs": [],
      "name": "getBalance",
      "outputs": [
        {
          "internalType": "uint256",
          "name": "",
          "type": "uint256"
        }
      ],
      "stateMutability": "view",
      "type": "function"
    },
    {
      "inputs": [
        {
          "internalType": "uint256",
          "name": "index",
          "type": "uint256"
        }
      ],
      "name": "getBet",
      "outputs": [
        {
          "internalType": "address",
          "name": "",
          "type": "address"
        },
        {
          "internalType": "address",
          "name": "",
          "type": "address"
        },
        {
          "internalType": "uint256",
          "name": "",
          "type": "uint256"
        },
        {
          "internalType": "uint256",
          "name": "",
          "type": "uint256"
        },
        {
          "internalType": "uint256",
          "name": "",
          "type": "uint256"
        }
      ],
      "stateMutability": "view",
      "type": "function"
    },
    {
      "inputs": [
        {
          "internalType": "string",
          "name": "symbol",
          "type": "string"
        }
      ],
      "name": "getPrice",
      "outputs": [
        {
          "internalType": "int256",
          "name": "",
          "type": "int256"
        }
      ],
      "stateMutability": "view",
      "type": "function"
    },
    {
      "inputs": [
        {
          "internalType": "address",
          "name": "user",
          "type": "address"
        }
      ],
      "name": "getUserBets",
      "outputs": [
        {
          "components": [
            {
              "internalType": "address",
              "name": "userAddress",
              "type": "address"
            },
            {
              "internalType": "address",
              "name": "assetAddress",
              "type": "address"
            },
            {
              "internalType": "uint256",
              "name": "amountPaid",
              "type": "uint256"
            },
            {
              "internalType": "uint256",
              "name": "estimate",
              "type": "uint256"
            },
            {
              "internalType": "uint256",
              "name": "winningAmount",
              "type": "uint256"
            }
          ],
          "internalType": "struct Bet.BetInfo[]",
          "name": "",
          "type": "tuple[]"
        }
      ],
      "stateMutability": "view",
      "type": "function"
    },
    {
      "inputs": [],
      "name": "priceFeed",
      "outputs": [
        {
          "internalType": "contract PriceFeed",
          "name": "",
          "type": "address"
        }
      ],
      "stateMutability": "view",
      "type": "function"
    },
    {
      "inputs": [
        {
          "internalType": "address",
          "name": "assetAddress",
          "type": "address"
        },
        {
          "internalType": "uint256",
          "name": "estimate",
          "type": "uint256"
        }
      ],
      "name": "setBet",
      "outputs": [],
      "stateMutability": "payable",
      "type": "function"
    },
    {
      "inputs": [],
      "name": "totalBalance",
      "outputs": [
        {
          "internalType": "uint256",
          "name": "",
          "type": "uint256"
        }
      ],
      "stateMutability": "view",
      "type": "function"
    },
    {
      "inputs": [
        {
          "internalType": "uint256",
          "name": "index",
          "type": "uint256"
        },
        {
          "internalType": "uint256",
          "name": "winningAmount",
          "type": "uint256"
        }
      ],
      "name": "updateWinningAmount",
      "outputs": [],
      "stateMutability": "nonpayable",
      "type": "function"
    },
    {
      "stateMutability": "payable",
      "type": "receive"
    }
  ],
  "bytecode": "0x60806040523480156200001157600080fd5b5060405162002ff238038062002ff283398181016040528101906200003791906200012b565b81600160006101000a81548173ffffffffffffffffffffffffffffffffffffffff021916908373ffffffffffffffffffffffffffffffffffffffff16021790555080600260006101000a81548173ffffffffffffffffffffffffffffffffffffffff021916908373ffffffffffffffffffffffffffffffffffffffff160217905550505062000172565b600080fd5b600073ffffffffffffffffffffffffffffffffffffffff82169050919050565b6000620000f382620000c6565b9050919050565b6200010581620000e6565b81146200011157600080fd5b50565b6000815190506200012581620000fa565b92915050565b60008060408385031215620001455762000144620000c1565b5b6000620001558582860162000114565b9250506020620001688582860162000114565b9150509250929050565b612e7080620001826000396000f3fe6080604052600436106100e15760003560e01c8063656b18531161007f57806394217ad11161005957806394217ad114610365578063a26f33a614610390578063ad7a672f146103b9578063bbd2e01e146103e45761014f565b8063656b1853146102e1578063741bef1a146102fd578063867c1247146103285761014f565b80632d56657d116100bb5780632d56657d1461020157806343a2a0d51461023e578063524f3889146102675780635373433f146102a45761014f565b8063061e494f1461015457806312065fe01461019557806322af00fa146101c05761014f565b3661014f5734600360008282546100f89190611d77565b925050819055503373ffffffffffffffffffffffffffffffffffffffff167fe1fffcc4923d04b559f4d29a8bfc6cda04eb5b0d3c460751c2402c5c5cc9109c346040516101459190611dba565b60405180910390a2005b600080fd5b34801561016057600080fd5b5061017b60048036038101906101769190611e15565b61040f565b60405161018c959493929190611e83565b60405180910390f35b3480156101a157600080fd5b506101aa6104ef565b6040516101b79190611dba565b60405180910390f35b3480156101cc57600080fd5b506101e760048036038101906101e29190611e15565b6104f9565b6040516101f8959493929190611e83565b60405180910390f35b34801561020d57600080fd5b5061022860048036038101906102239190611f02565b61057f565b6040516102359190612064565b60405180910390f35b34801561024a57600080fd5b5061026560048036038101906102609190611f02565b610845565b005b34801561027357600080fd5b5061028e600480360381019061028991906121cc565b6111c6565b60405161029b919061222e565b60405180910390f35b3480156102b057600080fd5b506102cb60048036038101906102c69190611f02565b61126b565b6040516102d89190611dba565b60405180910390f35b6102fb60048036038101906102f69190612249565b6112b4565b005b34801561030957600080fd5b506103126116b6565b60405161031f91906122e8565b60405180910390f35b34801561033457600080fd5b5061034f600480360381019061034a9190611f02565b6116dc565b60405161035c9190611dba565b60405180910390f35b34801561037157600080fd5b5061037a6116f4565b6040516103879190612324565b60405180910390f35b34801561039c57600080fd5b506103b760048036038101906103b2919061233f565b61171a565b005b3480156103c557600080fd5b506103ce611826565b6040516103db9190611dba565b60405180910390f35b3480156103f057600080fd5b506103f961182c565b6040516104069190611dba565b60405180910390f35b60008060008060008080549050861061045d576040517f08c379a0000000000000000000000000000000000000000000000000000000008152600401610454906123dc565b60405180910390fd5b6000808781548110610472576104716123fc565b5b906000526020600020906005020190508060000160009054906101000a900473ffffffffffffffffffffffffffffffffffffffff168160010160009054906101000a900473ffffffffffffffffffffffffffffffffffffffff16826002015483600301548460040154955095509550955095505091939590929450565b6000600354905090565b6000818154811061050957600080fd5b90600052602060002090600502016000915090508060000160009054906101000a900473ffffffffffffffffffffffffffffffffffffffff16908060010160009054906101000a900473ffffffffffffffffffffffffffffffffffffffff16908060020154908060030154908060040154905085565b60606000805b600080549050811015610626578373ffffffffffffffffffffffffffffffffffffffff16600082815481106105bd576105bc6123fc565b5b906000526020600020906005020160000160009054906101000a900473ffffffffffffffffffffffffffffffffffffffff1673ffffffffffffffffffffffffffffffffffffffff16036106195781806106159061242b565b9250505b8080600101915050610585565b5060008167ffffffffffffffff811115610643576106426120a1565b5b60405190808252806020026020018201604052801561067c57816020015b610669611ce3565b8152602001906001900390816106615790505b5090506000805b600080549050811015610839578573ffffffffffffffffffffffffffffffffffffffff16600082815481106106bb576106ba6123fc565b5b906000526020600020906005020160000160009054906101000a900473ffffffffffffffffffffffffffffffffffffffff1673ffffffffffffffffffffffffffffffffffffffff160361082c576000818154811061071c5761071b6123fc565b5b90600052602060002090600502016040518060a00160405290816000820160009054906101000a900473ffffffffffffffffffffffffffffffffffffffff1673ffffffffffffffffffffffffffffffffffffffff1673ffffffffffffffffffffffffffffffffffffffff1681526020016001820160009054906101000a900473ffffffffffffffffffffffffffffffffffffffff1673ffffffffffffffffffffffffffffffffffffffff1673ffffffffffffffffffffffffffffffffffffffff1681526020016002820154815260200160038201548152602001600482015481525050838381518110610812576108116123fc565b5b602002602001018190525081806108289061242b565b9250505b8080600101915050610683565b50819350505050919050565b806000600160009054906101000a900473ffffffffffffffffffffffffffffffffffffffff1673ffffffffffffffffffffffffffffffffffffffff16639c9b6451836040518263ffffffff1660e01b81526004016108a39190612473565b600060405180830381865afa1580156108c0573d6000803e3d6000fd5b505050506040513d6000823e3d601f19601f820116820180604052508101906108e99190612552565b5095505050505050804211610933576040517f08c379a000000000000000000000000000000000000000000000000000000000815260040161092a90612678565b60405180910390fd5b6000600160009054906101000a900473ffffffffffffffffffffffffffffffffffffffff1673ffffffffffffffffffffffffffffffffffffffff16639c9b6451856040518263ffffffff1660e01b81526004016109909190612473565b600060405180830381865afa1580156109ad573d6000803e3d6000fd5b505050506040513d6000823e3d601f19601f820116820180604052508101906109d69190612552565b505050505091505060006109e9826111c6565b90506000600460008773ffffffffffffffffffffffffffffffffffffffff1673ffffffffffffffffffffffffffffffffffffffff16815260200190815260200160002054905060008111610a72576040517f08c379a0000000000000000000000000000000000000000000000000000000008152600401610a699061270a565b60405180910390fd5b6000610a7d87611838565b90506000815167ffffffffffffffff811115610a9c57610a9b6120a1565b5b604051908082528060200260200182016040528015610aca5781602001602082028036833780820191505090505b5090506001825103610c1a576000839050600083600081518110610af157610af06123fc565b5b60200260200101516000015190508073ffffffffffffffffffffffffffffffffffffffff166108fc839081150290604051600060405180830381858888f19350505050610b73576040517f08c379a0000000000000000000000000000000000000000000000000000000008152600401610b6a9061279c565b60405180910390fd5b600073ffffffffffffffffffffffffffffffffffffffff168173ffffffffffffffffffffffffffffffffffffffff168b73ffffffffffffffffffffffffffffffffffffffff167f4a88bd679da4aaee6664a8e505eb8eaa53f983a1c99740536e734e6e31dc08d885600080604051610bed939291906127f7565b60405180910390a48460036000828254610c07919061282e565b92505081905550505050505050506111c1565b60005b8251811015610c7c5784838281518110610c3a57610c396123fc565b5b602002602001015160600151610c509190612862565b828281518110610c6357610c626123fc565b5b6020026020010181815250508080600101915050610c1d565b5060005b8151811015610cfd576000828281518110610c9e57610c9d6123fc565b5b60200260200101511215610cf057818181518110610cbf57610cbe6123fc565b5b6020026020010151610cd0906128a5565b828281518110610ce357610ce26123fc565b5b6020026020010181815250505b8080600101915050610c80565b506000610d0982611afe565b905060006064603286610d1c91906128ed565b610d26919061295e565b905060006064601487610d3991906128ed565b610d43919061295e565b90506000600460008d73ffffffffffffffffffffffffffffffffffffffff1673ffffffffffffffffffffffffffffffffffffffff168152602001908152602001600020819055506000821115610e41578483600081518110610da857610da76123fc565b5b602002602001015181518110610dc157610dc06123fc565b5b60200260200101516000015173ffffffffffffffffffffffffffffffffffffffff166108fc839081150290604051600060405180830381858888f19350505050610e40576040517f08c379a0000000000000000000000000000000000000000000000000000000008152600401610e3790612a01565b60405180910390fd5b5b6000811115610ef8578483600181518110610e5f57610e5e6123fc565b5b602002602001015181518110610e7857610e776123fc565b5b60200260200101516000015173ffffffffffffffffffffffffffffffffffffffff166108fc829081150290604051600060405180830381858888f19350505050610ef7576040517f08c379a0000000000000000000000000000000000000000000000000000000008152600401610eee90612a93565b60405180910390fd5b5b6000600160009054906101000a900473ffffffffffffffffffffffffffffffffffffffff1673ffffffffffffffffffffffffffffffffffffffff16639c9b64518d6040518263ffffffff1660e01b8152600401610f559190612473565b600060405180830381865afa158015610f72573d6000803e3d6000fd5b505050506040513d6000823e3d601f19601f82011682018060405250810190610f9b9190612552565b9650505050505050600073ffffffffffffffffffffffffffffffffffffffff168173ffffffffffffffffffffffffffffffffffffffff1603611012576040517f08c379a000000000000000000000000000000000000000000000000000000000815260040161100990612aff565b60405180910390fd5b6000828489611021919061282e565b61102b919061282e565b905060008111156110ab578173ffffffffffffffffffffffffffffffffffffffff166108fc829081150290604051600060405180830381858888f193505050506110aa576040517f08c379a00000000000000000000000000000000000000000000000000000000081526004016110a190612b91565b60405180910390fd5b5b86856001815181106110c0576110bf6123fc565b5b6020026020010151815181106110d9576110d86123fc565b5b60200260200101516000015173ffffffffffffffffffffffffffffffffffffffff1687866000815181106111105761110f6123fc565b5b602002602001015181518110611129576111286123fc565b5b60200260200101516000015173ffffffffffffffffffffffffffffffffffffffff168e73ffffffffffffffffffffffffffffffffffffffff167f4a88bd679da4aaee6664a8e505eb8eaa53f983a1c99740536e734e6e31dc08d887878660405161119593929190612bb1565b60405180910390a487600360008282546111af919061282e565b92505081905550505050505050505050505b505050565b6000600260009054906101000a900473ffffffffffffffffffffffffffffffffffffffff1673ffffffffffffffffffffffffffffffffffffffff1663f66a1b71836040518263ffffffff1660e01b81526004016112239190612c2c565b602060405180830381865afa158015611240573d6000803e3d6000fd5b505050506040513d601f19601f820116820180604052508101906112649190612c7a565b9050919050565b6000600460008373ffffffffffffffffffffffffffffffffffffffff1673ffffffffffffffffffffffffffffffffffffffff168152602001908152602001600020549050919050565b600080600160009054906101000a900473ffffffffffffffffffffffffffffffffffffffff1673ffffffffffffffffffffffffffffffffffffffff16639c9b6451856040518263ffffffff1660e01b81526004016113129190612473565b600060405180830381865afa15801561132f573d6000803e3d6000fd5b505050506040513d6000823e3d601f19601f820116820180604052508101906113589190612552565b965096505050505050600082116113a4576040517f08c379a000000000000000000000000000000000000000000000000000000000815260040161139b90612cf3565b60405180910390fd5b600073ffffffffffffffffffffffffffffffffffffffff168173ffffffffffffffffffffffffffffffffffffffff1603611413576040517f08c379a000000000000000000000000000000000000000000000000000000000815260040161140a90612d5f565b60405180910390fd5b8134146114595734826040517f47af6acc000000000000000000000000000000000000000000000000000000008152600401611450929190612d7f565b60405180910390fd5b60006040518060a001604052803373ffffffffffffffffffffffffffffffffffffffff1681526020018673ffffffffffffffffffffffffffffffffffffffff16815260200134815260200185815260200160008152509050600081908060018154018082558091505060019003906000526020600020906005020160009091909190915060008201518160000160006101000a81548173ffffffffffffffffffffffffffffffffffffffff021916908373ffffffffffffffffffffffffffffffffffffffff16021790555060208201518160010160006101000a81548173ffffffffffffffffffffffffffffffffffffffff021916908373ffffffffffffffffffffffffffffffffffffffff1602179055506040820151816002015560608201518160030155608082015181600401555050346003600082825461159d9190611d77565b9250508190555034600460008773ffffffffffffffffffffffffffffffffffffffff1673ffffffffffffffffffffffffffffffffffffffff16815260200190815260200160002060008282546115f39190611d77565b925050819055508473ffffffffffffffffffffffffffffffffffffffff163373ffffffffffffffffffffffffffffffffffffffff167f61e034d80d9bd9b8dcd5d07434c03615017de4a6a229fe18bb93863bd20341a83487604051611659929190612d7f565b60405180910390a33373ffffffffffffffffffffffffffffffffffffffff167fe1fffcc4923d04b559f4d29a8bfc6cda04eb5b0d3c460751c2402c5c5cc9109c346040516116a79190611dba565b60405180910390a25050505050565b600260009054906101000a900473ffffffffffffffffffffffffffffffffffffffff1681565b60046020528060005260406000206000915090505481565b600160009054906101000a900473ffffffffffffffffffffffffffffffffffffffff1681565b6000805490508210611761576040517f08c379a0000000000000000000000000000000000000000000000000000000008152600401611758906123dc565b60405180910390fd5b6000808381548110611776576117756123fc565b5b906000526020600020906005020190503373ffffffffffffffffffffffffffffffffffffffff168160000160009054906101000a900473ffffffffffffffffffffffffffffffffffffffff1673ffffffffffffffffffffffffffffffffffffffff1614611818576040517f08c379a000000000000000000000000000000000000000000000000000000000815260040161180f90612e1a565b60405180910390fd5b818160040181905550505050565b60035481565b60008080549050905090565b60606000805b6000805490508110156118df578373ffffffffffffffffffffffffffffffffffffffff1660008281548110611876576118756123fc565b5b906000526020600020906005020160010160009054906101000a900473ffffffffffffffffffffffffffffffffffffffff1673ffffffffffffffffffffffffffffffffffffffff16036118d25781806118ce9061242b565b9250505b808060010191505061183e565b5060008167ffffffffffffffff8111156118fc576118fb6120a1565b5b60405190808252806020026020018201604052801561193557816020015b611922611ce3565b81526020019060019003908161191a5790505b5090506000805b600080549050811015611af2578573ffffffffffffffffffffffffffffffffffffffff1660008281548110611974576119736123fc565b5b906000526020600020906005020160010160009054906101000a900473ffffffffffffffffffffffffffffffffffffffff1673ffffffffffffffffffffffffffffffffffffffff1603611ae557600081815481106119d5576119d46123fc565b5b90600052602060002090600502016040518060a00160405290816000820160009054906101000a900473ffffffffffffffffffffffffffffffffffffffff1673ffffffffffffffffffffffffffffffffffffffff1673ffffffffffffffffffffffffffffffffffffffff1681526020016001820160009054906101000a900473ffffffffffffffffffffffffffffffffffffffff1673ffffffffffffffffffffffffffffffffffffffff1673ffffffffffffffffffffffffffffffffffffffff1681526020016002820154815260200160038201548152602001600482015481525050838381518110611acb57611aca6123fc565b5b60200260200101819052508180611ae19061242b565b9250505b808060010191505061193c565b50819350505050919050565b606060008251905060008167ffffffffffffffff811115611b2257611b216120a1565b5b604051908082528060200260200182016040528015611b505781602001602082028036833780820191505090505b50905060005b82811015611b8b5780828281518110611b7257611b716123fc565b5b6020026020010181815250508080600101915050611b56565b5060005b82811015611cd85760005b600184611ba7919061282e565b811015611cca578583600183611bbd9190611d77565b81518110611bce57611bcd6123fc565b5b602002602001015181518110611be757611be66123fc565b5b602002602001015186848381518110611c0357611c026123fc565b5b602002602001015181518110611c1c57611c1b6123fc565b5b60200260200101511315611cbd576000838281518110611c3f57611c3e6123fc565b5b6020026020010151905083600183611c579190611d77565b81518110611c6857611c676123fc565b5b6020026020010151848381518110611c8357611c826123fc565b5b6020026020010181815250508084600184611c9e9190611d77565b81518110611caf57611cae6123fc565b5b602002602001018181525050505b8080600101915050611b9a565b508080600101915050611b8f565b508092505050919050565b6040518060a00160405280600073ffffffffffffffffffffffffffffffffffffffff168152602001600073ffffffffffffffffffffffffffffffffffffffff1681526020016000815260200160008152602001600081525090565b6000819050919050565b7f4e487b7100000000000000000000000000000000000000000000000000000000600052601160045260246000fd5b6000611d8282611d3e565b9150611d8d83611d3e565b9250828201905080821115611da557611da4611d48565b5b92915050565b611db481611d3e565b82525050565b6000602082019050611dcf6000830184611dab565b92915050565b6000604051905090565b600080fd5b600080fd5b611df281611d3e565b8114611dfd57600080fd5b50565b600081359050611e0f81611de9565b92915050565b600060208284031215611e2b57611e2a611ddf565b5b6000611e3984828501611e00565b91505092915050565b600073ffffffffffffffffffffffffffffffffffffffff82169050919050565b6000611e6d82611e42565b9050919050565b611e7d81611e62565b82525050565b600060a082019050611e986000830188611e74565b611ea56020830187611e74565b611eb26040830186611dab565b611ebf6060830185611dab565b611ecc6080830184611dab565b9695505050505050565b611edf81611e62565b8114611eea57600080fd5b50565b600081359050611efc81611ed6565b92915050565b600060208284031215611f1857611f17611ddf565b5b6000611f2684828501611eed565b91505092915050565b600081519050919050565b600082825260208201905092915050565b6000819050602082019050919050565b611f6481611e62565b82525050565b611f7381611d3e565b82525050565b60a082016000820151611f8f6000850182611f5b565b506020820151611fa26020850182611f5b565b506040820151611fb56040850182611f6a565b506060820151611fc86060850182611f6a565b506080820151611fdb6080850182611f6a565b50505050565b6000611fed8383611f79565b60a08301905092915050565b6000602082019050919050565b600061201182611f2f565b61201b8185611f3a565b935061202683611f4b565b8060005b8381101561205757815161203e8882611fe1565b975061204983611ff9565b92505060018101905061202a565b5085935050505092915050565b6000602082019050818103600083015261207e8184612006565b905092915050565b600080fd5b600080fd5b6000601f19601f8301169050919050565b7f4e487b7100000000000000000000000000000000000000000000000000000000600052604160045260246000fd5b6120d982612090565b810181811067ffffffffffffffff821117156120f8576120f76120a1565b5b80604052505050565b600061210b611dd5565b905061211782826120d0565b919050565b600067ffffffffffffffff821115612137576121366120a1565b5b61214082612090565b9050602081019050919050565b82818337600083830152505050565b600061216f61216a8461211c565b612101565b90508281526020810184848401111561218b5761218a61208b565b5b61219684828561214d565b509392505050565b600082601f8301126121b3576121b2612086565b5b81356121c384826020860161215c565b91505092915050565b6000602082840312156121e2576121e1611ddf565b5b600082013567ffffffffffffffff811115612200576121ff611de4565b5b61220c8482850161219e565b91505092915050565b6000819050919050565b61222881612215565b82525050565b6000602082019050612243600083018461221f565b92915050565b600080604083850312156122605761225f611ddf565b5b600061226e85828601611eed565b925050602061227f85828601611e00565b9150509250929050565b6000819050919050565b60006122ae6122a96122a484611e42565b612289565b611e42565b9050919050565b60006122c082612293565b9050919050565b60006122d2826122b5565b9050919050565b6122e2816122c7565b82525050565b60006020820190506122fd60008301846122d9565b92915050565b600061230e826122b5565b9050919050565b61231e81612303565b82525050565b60006020820190506123396000830184612315565b92915050565b6000806040838503121561235657612355611ddf565b5b600061236485828601611e00565b925050602061237585828601611e00565b9150509250929050565b600082825260208201905092915050565b7f42657420696e646578206f7574206f6620626f756e6473000000000000000000600082015250565b60006123c660178361237f565b91506123d182612390565b602082019050919050565b600060208201905081810360008301526123f5816123b9565b9050919050565b7f4e487b7100000000000000000000000000000000000000000000000000000000600052603260045260246000fd5b600061243682611d3e565b91507fffffffffffffffffffffffffffffffffffffffffffffffffffffffffffffffff820361246857612467611d48565b5b600182019050919050565b60006020820190506124886000830184611e74565b92915050565b60005b838110156124ac578082015181840152602081019050612491565b60008484015250505050565b60006124cb6124c68461211c565b612101565b9050828152602081018484840111156124e7576124e661208b565b5b6124f284828561248e565b509392505050565b600082601f83011261250f5761250e612086565b5b815161251f8482602086016124b8565b91505092915050565b60008151905061253781611de9565b92915050565b60008151905061254c81611ed6565b92915050565b600080600080600080600060e0888a03121561257157612570611ddf565b5b600088015167ffffffffffffffff81111561258f5761258e611de4565b5b61259b8a828b016124fa565b975050602088015167ffffffffffffffff8111156125bc576125bb611de4565b5b6125c88a828b016124fa565b96505060406125d98a828b01612528565b95505060606125ea8a828b01612528565b94505060806125fb8a828b01612528565b93505060a061260c8a828b01612528565b92505060c061261d8a828b0161253d565b91505092959891949750929550565b7f526573756c742074696d65206e6f742072656163686564207965740000000000600082015250565b6000612662601b8361237f565b915061266d8261262c565b602082019050919050565b6000602082019050818103600083015261269181612655565b9050919050565b7f4e6f2066756e647320746f206469737472696275746520666f7220746869732060008201527f6173736574000000000000000000000000000000000000000000000000000000602082015250565b60006126f460258361237f565b91506126ff82612698565b604082019050919050565b60006020820190508181036000830152612723816126e7565b9050919050565b7f4661696c656420746f207472616e736665722066756e647320746f206265747460008201527f6572000000000000000000000000000000000000000000000000000000000000602082015250565b600061278660228361237f565b91506127918261272a565b604082019050919050565b600060208201905081810360008301526127b581612779565b9050919050565b6000819050919050565b60006127e16127dc6127d7846127bc565b612289565b611d3e565b9050919050565b6127f1816127c6565b82525050565b600060608201905061280c6000830186611dab565b61281960208301856127e8565b61282660408301846127e8565b949350505050565b600061283982611d3e565b915061284483611d3e565b925082820390508181111561285c5761285b611d48565b5b92915050565b600061286d82612215565b915061287883612215565b925082820390508181126000841216828213600085121516171561289f5761289e611d48565b5b92915050565b60006128b082612215565b91507f800000000000000000000000000000000000000000000000000000000000000082036128e2576128e1611d48565b5b816000039050919050565b60006128f882611d3e565b915061290383611d3e565b925082820261291181611d3e565b9150828204841483151761292857612927611d48565b5b5092915050565b7f4e487b7100000000000000000000000000000000000000000000000000000000600052601260045260246000fd5b600061296982611d3e565b915061297483611d3e565b9250826129845761298361292f565b5b828204905092915050565b7f4661696c656420746f207472616e736665722066756e647320746f206669727360008201527f7420706c61636500000000000000000000000000000000000000000000000000602082015250565b60006129eb60278361237f565b91506129f68261298f565b604082019050919050565b60006020820190508181036000830152612a1a816129de565b9050919050565b7f4661696c656420746f207472616e736665722066756e647320746f207365636f60008201527f6e6420706c616365000000000000000000000000000000000000000000000000602082015250565b6000612a7d60288361237f565b9150612a8882612a21565b604082019050919050565b60006020820190508181036000830152612aac81612a70565b9050919050565b7f496e76616c696420626574207365747465722061646472657373000000000000600082015250565b6000612ae9601a8361237f565b9150612af482612ab3565b602082019050919050565b60006020820190508181036000830152612b1881612adc565b9050919050565b7f4661696c656420746f207472616e736665722066756e647320746f206265745360008201527f6574746572000000000000000000000000000000000000000000000000000000602082015250565b6000612b7b60258361237f565b9150612b8682612b1f565b604082019050919050565b60006020820190508181036000830152612baa81612b6e565b9050919050565b6000606082019050612bc66000830186611dab565b612bd36020830185611dab565b612be06040830184611dab565b949350505050565b600081519050919050565b6000612bfe82612be8565b612c08818561237f565b9350612c1881856020860161248e565b612c2181612090565b840191505092915050565b60006020820190508181036000830152612c468184612bf3565b905092915050565b612c5781612215565b8114612c6257600080fd5b50565b600081519050612c7481612c4e565b92915050565b600060208284031215612c9057612c8f611ddf565b5b6000612c9e84828501612c65565b91505092915050565b7f426574207072696365206973206e6f7420736574206f7220696e76616c696400600082015250565b6000612cdd601f8361237f565b9150612ce882612ca7565b602082019050919050565b60006020820190508181036000830152612d0c81612cd0565b9050919050565b7f496e76616c696420626574207365747465720000000000000000000000000000600082015250565b6000612d4960128361237f565b9150612d5482612d13565b602082019050919050565b60006020820190508181036000830152612d7881612d3c565b9050919050565b6000604082019050612d946000830185611dab565b612da16020830184611dab565b9392505050565b7f4e6f7420617574686f72697a656420746f20757064617465207468697320626560008201527f7400000000000000000000000000000000000000000000000000000000000000602082015250565b6000612e0460218361237f565b9150612e0f82612da8565b604082019050919050565b60006020820190508181036000830152612e3381612df7565b905091905056fea2646970667358221220c04144829e18a18cdf59a9cd58c1f4f6b3431f5b4ff68e439f1751aa55459b6364736f6c63430008180033",
  "linkReferences": {},
  "deployedLinkReferences": {}
}