{
  "_format": "hh-sol-artifact-1",
  "contractName": "Bet",
  "sourceName": "contracts/Bet.sol",
  "abi": [
    {
      "inputs": [
        {
          "internalType": "address",
          "name": "assetManagerAddress",
          "type": "address"
        }
      ],
      "stateMutability": "nonpayable",
      "type": "constructor"
    },
    {
      "inputs": [
        {
          "internalType": "uint256",
          "name": "sent",
          "type": "uint256"
        },
        {
          "internalType": "uint256",
          "name": "required",
          "type": "uint256"
        }
      ],
      "name": "IncorrectPaymentAmount",
      "type": "error"
    },
    {
      "anonymous": false,
      "inputs": [
        {
          "indexed": true,
          "internalType": "address",
          "name": "userAddress",
          "type": "address"
        },
        {
          "indexed": true,
          "internalType": "address",
          "name": "assetAddress",
          "type": "address"
        },
        {
          "indexed": false,
          "internalType": "uint256",
          "name": "amountPaid",
          "type": "uint256"
        },
        {
          "indexed": false,
          "internalType": "uint256",
          "name": "estimate",
          "type": "uint256"
        }
      ],
      "name": "BetPlaced",
      "type": "event"
    },
    {
      "anonymous": false,
      "inputs": [
        {
          "indexed": true,
          "internalType": "address",
          "name": "sender",
          "type": "address"
        },
        {
          "indexed": false,
          "internalType": "uint256",
          "name": "amount",
          "type": "uint256"
        }
      ],
      "name": "Deposit",
      "type": "event"
    },
    {
      "anonymous": false,
      "inputs": [
        {
          "indexed": true,
          "internalType": "address",
          "name": "assetAddress",
          "type": "address"
        },
        {
          "indexed": true,
          "internalType": "address",
          "name": "address1",
          "type": "address"
        },
        {
          "indexed": true,
          "internalType": "address",
          "name": "address2",
          "type": "address"
        },
        {
          "indexed": false,
          "internalType": "uint256",
          "name": "amount1",
          "type": "uint256"
        },
        {
          "indexed": false,
          "internalType": "uint256",
          "name": "amount2",
          "type": "uint256"
        },
        {
          "indexed": false,
          "internalType": "uint256",
          "name": "amount3",
          "type": "uint256"
        }
      ],
      "name": "FundsDistributed",
      "type": "event"
    },
    {
      "inputs": [
        {
          "internalType": "address",
          "name": "",
          "type": "address"
        }
      ],
      "name": "assetBalances",
      "outputs": [
        {
          "internalType": "uint256",
          "name": "",
          "type": "uint256"
        }
      ],
      "stateMutability": "view",
      "type": "function"
    },
    {
      "inputs": [],
      "name": "assetManager",
      "outputs": [
        {
          "internalType": "contract AssetManager",
          "name": "",
          "type": "address"
        }
      ],
      "stateMutability": "view",
      "type": "function"
    },
    {
      "inputs": [
        {
          "internalType": "uint256",
          "name": "",
          "type": "uint256"
        }
      ],
      "name": "bets",
      "outputs": [
        {
          "internalType": "address",
          "name": "userAddress",
          "type": "address"
        },
        {
          "internalType": "address",
          "name": "assetAddress",
          "type": "address"
        },
        {
          "internalType": "uint256",
          "name": "amountPaid",
          "type": "uint256"
        },
        {
          "internalType": "uint256",
          "name": "estimate",
          "type": "uint256"
        },
        {
          "internalType": "uint256",
          "name": "winningAmount",
          "type": "uint256"
        }
      ],
      "stateMutability": "view",
      "type": "function"
    },
    {
      "inputs": [],
      "name": "betsLength",
      "outputs": [
        {
          "internalType": "uint256",
          "name": "",
          "type": "uint256"
        }
      ],
      "stateMutability": "view",
      "type": "function"
    },
    {
      "inputs": [
        {
          "internalType": "address",
          "name": "assetAddress",
          "type": "address"
        },
        {
          "internalType": "uint256",
          "name": "subtractValue",
          "type": "uint256"
        }
      ],
      "name": "distributeFunds",
      "outputs": [],
      "stateMutability": "nonpayable",
      "type": "function"
    },
    {
      "inputs": [
        {
          "internalType": "address",
          "name": "assetAddress",
          "type": "address"
        }
      ],
      "name": "getAssetBalance",
      "outputs": [
        {
          "internalType": "uint256",
          "name": "",
          "type": "uint256"
        }
      ],
      "stateMutability": "view",
      "type": "function"
    },
    {
      "inputs": [],
      "name": "getBalance",
      "outputs": [
        {
          "internalType": "uint256",
          "name": "",
          "type": "uint256"
        }
      ],
      "stateMutability": "view",
      "type": "function"
    },
    {
      "inputs": [
        {
          "internalType": "uint256",
          "name": "index",
          "type": "uint256"
        }
      ],
      "name": "getBet",
      "outputs": [
        {
          "internalType": "address",
          "name": "",
          "type": "address"
        },
        {
          "internalType": "address",
          "name": "",
          "type": "address"
        },
        {
          "internalType": "uint256",
          "name": "",
          "type": "uint256"
        },
        {
          "internalType": "uint256",
          "name": "",
          "type": "uint256"
        },
        {
          "internalType": "uint256",
          "name": "",
          "type": "uint256"
        }
      ],
      "stateMutability": "view",
      "type": "function"
    },
    {
      "inputs": [
        {
          "internalType": "address",
          "name": "user",
          "type": "address"
        }
      ],
      "name": "getUserBets",
      "outputs": [
        {
          "components": [
            {
              "internalType": "address",
              "name": "userAddress",
              "type": "address"
            },
            {
              "internalType": "address",
              "name": "assetAddress",
              "type": "address"
            },
            {
              "internalType": "uint256",
              "name": "amountPaid",
              "type": "uint256"
            },
            {
              "internalType": "uint256",
              "name": "estimate",
              "type": "uint256"
            },
            {
              "internalType": "uint256",
              "name": "winningAmount",
              "type": "uint256"
            }
          ],
          "internalType": "struct Bet.BetInfo[]",
          "name": "",
          "type": "tuple[]"
        }
      ],
      "stateMutability": "view",
      "type": "function"
    },
    {
      "inputs": [
        {
          "internalType": "address",
          "name": "assetAddress",
          "type": "address"
        },
        {
          "internalType": "uint256",
          "name": "estimate",
          "type": "uint256"
        }
      ],
      "name": "setBet",
      "outputs": [],
      "stateMutability": "payable",
      "type": "function"
    },
    {
      "inputs": [],
      "name": "totalBalance",
      "outputs": [
        {
          "internalType": "uint256",
          "name": "",
          "type": "uint256"
        }
      ],
      "stateMutability": "view",
      "type": "function"
    },
    {
      "inputs": [
        {
          "internalType": "uint256",
          "name": "index",
          "type": "uint256"
        },
        {
          "internalType": "uint256",
          "name": "winningAmount",
          "type": "uint256"
        }
      ],
      "name": "updateWinningAmount",
      "outputs": [],
      "stateMutability": "nonpayable",
      "type": "function"
    },
    {
      "stateMutability": "payable",
      "type": "receive"
    }
  ],
  "bytecode": "0x60806040523480156200001157600080fd5b50604051620027de380380620027de8339818101604052810190620000379190620000e9565b80600160006101000a81548173ffffffffffffffffffffffffffffffffffffffff021916908373ffffffffffffffffffffffffffffffffffffffff160217905550506200011b565b600080fd5b600073ffffffffffffffffffffffffffffffffffffffff82169050919050565b6000620000b18262000084565b9050919050565b620000c381620000a4565b8114620000cf57600080fd5b50565b600081519050620000e381620000b8565b92915050565b6000602082840312156200010257620001016200007f565b5b60006200011284828501620000d2565b91505092915050565b6126b3806200012b6000396000f3fe6080604052600436106100ab5760003560e01c8063656b185311610064578063656b18531461026e578063867c12471461028a57806394217ad1146102c7578063a26f33a6146102f2578063ad7a672f1461031b578063bbd2e01e1461034657610119565b8063061e494f1461011e578063071e9a761461015f57806312065fe01461018857806322af00fa146101b35780632d56657d146101f45780635373433f1461023157610119565b366101195734600260008282546100c29190611917565b925050819055503373ffffffffffffffffffffffffffffffffffffffff167fe1fffcc4923d04b559f4d29a8bfc6cda04eb5b0d3c460751c2402c5c5cc9109c3460405161010f919061195a565b60405180910390a2005b600080fd5b34801561012a57600080fd5b50610145600480360381019061014091906119b5565b610371565b604051610156959493929190611a23565b60405180910390f35b34801561016b57600080fd5b5061018660048036038101906101819190611aa2565b610451565b005b34801561019457600080fd5b5061019d610adb565b6040516101aa919061195a565b60405180910390f35b3480156101bf57600080fd5b506101da60048036038101906101d591906119b5565b610ae5565b6040516101eb959493929190611a23565b60405180910390f35b34801561020057600080fd5b5061021b60048036038101906102169190611ae2565b610b6b565b6040516102289190611c44565b60405180910390f35b34801561023d57600080fd5b5061025860048036038101906102539190611ae2565b610e31565b604051610265919061195a565b60405180910390f35b61028860048036038101906102839190611aa2565b610e7a565b005b34801561029657600080fd5b506102b160048036038101906102ac9190611ae2565b61127c565b6040516102be919061195a565b60405180910390f35b3480156102d357600080fd5b506102dc611294565b6040516102e99190611cc5565b60405180910390f35b3480156102fe57600080fd5b5061031960048036038101906103149190611ce0565b6112ba565b005b34801561032757600080fd5b506103306113c6565b60405161033d919061195a565b60405180910390f35b34801561035257600080fd5b5061035b6113cc565b604051610368919061195a565b60405180910390f35b6000806000806000808054905086106103bf576040517f08c379a00000000000000000000000000000000000000000000000000000000081526004016103b690611d7d565b60405180910390fd5b60008087815481106103d4576103d3611d9d565b5b906000526020600020906005020190508060000160009054906101000a900473ffffffffffffffffffffffffffffffffffffffff168160010160009054906101000a900473ffffffffffffffffffffffffffffffffffffffff16826002015483600301548460040154955095509550955095505091939590929450565b6000600360008473ffffffffffffffffffffffffffffffffffffffff1673ffffffffffffffffffffffffffffffffffffffff168152602001908152602001600020549050600081116104d8576040517f08c379a00000000000000000000000000000000000000000000000000000000081526004016104cf90611e3e565b60405180910390fd5b60006104e3846113d8565b90506000815167ffffffffffffffff81111561050257610501611e5e565b5b6040519080825280602002602001820160405280156105305781602001602082028036833780820191505090505b50905060005b8251811015610595578483828151811061055357610552611d9d565b5b6020026020010151606001516105699190611e97565b82828151811061057c5761057b611d9d565b5b6020026020010181815250508080600101915050610536565b5060005b81518110156106165760008282815181106105b7576105b6611d9d565b5b60200260200101511215610609578181815181106105d8576105d7611d9d565b5b60200260200101516105e990611eda565b8282815181106105fc576105fb611d9d565b5b6020026020010181815250505b8080600101915050610599565b5060006106228261169e565b9050600060646032866106359190611f22565b61063f9190611f93565b9050600060646014876106529190611f22565b61065c9190611f93565b90506000600360008a73ffffffffffffffffffffffffffffffffffffffff1673ffffffffffffffffffffffffffffffffffffffff16815260200190815260200160002081905550600082111561075a5784836000815181106106c1576106c0611d9d565b5b6020026020010151815181106106da576106d9611d9d565b5b60200260200101516000015173ffffffffffffffffffffffffffffffffffffffff166108fc839081150290604051600060405180830381858888f19350505050610759576040517f08c379a000000000000000000000000000000000000000000000000000000000815260040161075090612036565b60405180910390fd5b5b600081111561081157848360018151811061077857610777611d9d565b5b60200260200101518151811061079157610790611d9d565b5b60200260200101516000015173ffffffffffffffffffffffffffffffffffffffff166108fc829081150290604051600060405180830381858888f19350505050610810576040517f08c379a0000000000000000000000000000000000000000000000000000000008152600401610807906120c8565b60405180910390fd5b5b6000600160009054906101000a900473ffffffffffffffffffffffffffffffffffffffff1673ffffffffffffffffffffffffffffffffffffffff16639c9b64518a6040518263ffffffff1660e01b815260040161086e91906120e8565b600060405180830381865afa15801561088b573d6000803e3d6000fd5b505050506040513d6000823e3d601f19601f820116820180604052508101906108b4919061225f565b9650505050505050600073ffffffffffffffffffffffffffffffffffffffff168173ffffffffffffffffffffffffffffffffffffffff160361092b576040517f08c379a000000000000000000000000000000000000000000000000000000000815260040161092290612385565b60405180910390fd5b600082848961093a91906123a5565b61094491906123a5565b905060008111156109c4578173ffffffffffffffffffffffffffffffffffffffff166108fc829081150290604051600060405180830381858888f193505050506109c3576040517f08c379a00000000000000000000000000000000000000000000000000000000081526004016109ba9061244b565b60405180910390fd5b5b86856001815181106109d9576109d8611d9d565b5b6020026020010151815181106109f2576109f1611d9d565b5b60200260200101516000015173ffffffffffffffffffffffffffffffffffffffff168786600081518110610a2957610a28611d9d565b5b602002602001015181518110610a4257610a41611d9d565b5b60200260200101516000015173ffffffffffffffffffffffffffffffffffffffff168b73ffffffffffffffffffffffffffffffffffffffff167f4a88bd679da4aaee6664a8e505eb8eaa53f983a1c99740536e734e6e31dc08d8878786604051610aae9392919061246b565b60405180910390a48760026000828254610ac891906123a5565b9250508190555050505050505050505050565b6000600254905090565b60008181548110610af557600080fd5b90600052602060002090600502016000915090508060000160009054906101000a900473ffffffffffffffffffffffffffffffffffffffff16908060010160009054906101000a900473ffffffffffffffffffffffffffffffffffffffff16908060020154908060030154908060040154905085565b60606000805b600080549050811015610c12578373ffffffffffffffffffffffffffffffffffffffff1660008281548110610ba957610ba8611d9d565b5b906000526020600020906005020160000160009054906101000a900473ffffffffffffffffffffffffffffffffffffffff1673ffffffffffffffffffffffffffffffffffffffff1603610c05578180610c01906124a2565b9250505b8080600101915050610b71565b5060008167ffffffffffffffff811115610c2f57610c2e611e5e565b5b604051908082528060200260200182016040528015610c6857816020015b610c55611883565b815260200190600190039081610c4d5790505b5090506000805b600080549050811015610e25578573ffffffffffffffffffffffffffffffffffffffff1660008281548110610ca757610ca6611d9d565b5b906000526020600020906005020160000160009054906101000a900473ffffffffffffffffffffffffffffffffffffffff1673ffffffffffffffffffffffffffffffffffffffff1603610e185760008181548110610d0857610d07611d9d565b5b90600052602060002090600502016040518060a00160405290816000820160009054906101000a900473ffffffffffffffffffffffffffffffffffffffff1673ffffffffffffffffffffffffffffffffffffffff1673ffffffffffffffffffffffffffffffffffffffff1681526020016001820160009054906101000a900473ffffffffffffffffffffffffffffffffffffffff1673ffffffffffffffffffffffffffffffffffffffff1673ffffffffffffffffffffffffffffffffffffffff1681526020016002820154815260200160038201548152602001600482015481525050838381518110610dfe57610dfd611d9d565b5b60200260200101819052508180610e14906124a2565b9250505b8080600101915050610c6f565b50819350505050919050565b6000600360008373ffffffffffffffffffffffffffffffffffffffff1673ffffffffffffffffffffffffffffffffffffffff168152602001908152602001600020549050919050565b600080600160009054906101000a900473ffffffffffffffffffffffffffffffffffffffff1673ffffffffffffffffffffffffffffffffffffffff16639c9b6451856040518263ffffffff1660e01b8152600401610ed891906120e8565b600060405180830381865afa158015610ef5573d6000803e3d6000fd5b505050506040513d6000823e3d601f19601f82011682018060405250810190610f1e919061225f565b96509650505050505060008211610f6a576040517f08c379a0000000000000000000000000000000000000000000000000000000008152600401610f6190612536565b60405180910390fd5b600073ffffffffffffffffffffffffffffffffffffffff168173ffffffffffffffffffffffffffffffffffffffff1603610fd9576040517f08c379a0000000000000000000000000000000000000000000000000000000008152600401610fd0906125a2565b60405180910390fd5b81341461101f5734826040517f47af6acc0000000000000000000000000000000000000000000000000000000081526004016110169291906125c2565b60405180910390fd5b60006040518060a001604052803373ffffffffffffffffffffffffffffffffffffffff1681526020018673ffffffffffffffffffffffffffffffffffffffff16815260200134815260200185815260200160008152509050600081908060018154018082558091505060019003906000526020600020906005020160009091909190915060008201518160000160006101000a81548173ffffffffffffffffffffffffffffffffffffffff021916908373ffffffffffffffffffffffffffffffffffffffff16021790555060208201518160010160006101000a81548173ffffffffffffffffffffffffffffffffffffffff021916908373ffffffffffffffffffffffffffffffffffffffff160217905550604082015181600201556060820151816003015560808201518160040155505034600260008282546111639190611917565b9250508190555034600360008773ffffffffffffffffffffffffffffffffffffffff1673ffffffffffffffffffffffffffffffffffffffff16815260200190815260200160002060008282546111b99190611917565b925050819055508473ffffffffffffffffffffffffffffffffffffffff163373ffffffffffffffffffffffffffffffffffffffff167f61e034d80d9bd9b8dcd5d07434c03615017de4a6a229fe18bb93863bd20341a8348760405161121f9291906125c2565b60405180910390a33373ffffffffffffffffffffffffffffffffffffffff167fe1fffcc4923d04b559f4d29a8bfc6cda04eb5b0d3c460751c2402c5c5cc9109c3460405161126d919061195a565b60405180910390a25050505050565b60036020528060005260406000206000915090505481565b600160009054906101000a900473ffffffffffffffffffffffffffffffffffffffff1681565b6000805490508210611301576040517f08c379a00000000000000000000000000000000000000000000000000000000081526004016112f890611d7d565b60405180910390fd5b600080838154811061131657611315611d9d565b5b906000526020600020906005020190503373ffffffffffffffffffffffffffffffffffffffff168160000160009054906101000a900473ffffffffffffffffffffffffffffffffffffffff1673ffffffffffffffffffffffffffffffffffffffff16146113b8576040517f08c379a00000000000000000000000000000000000000000000000000000000081526004016113af9061265d565b60405180910390fd5b818160040181905550505050565b60025481565b60008080549050905090565b60606000805b60008054905081101561147f578373ffffffffffffffffffffffffffffffffffffffff166000828154811061141657611415611d9d565b5b906000526020600020906005020160010160009054906101000a900473ffffffffffffffffffffffffffffffffffffffff1673ffffffffffffffffffffffffffffffffffffffff160361147257818061146e906124a2565b9250505b80806001019150506113de565b5060008167ffffffffffffffff81111561149c5761149b611e5e565b5b6040519080825280602002602001820160405280156114d557816020015b6114c2611883565b8152602001906001900390816114ba5790505b5090506000805b600080549050811015611692578573ffffffffffffffffffffffffffffffffffffffff166000828154811061151457611513611d9d565b5b906000526020600020906005020160010160009054906101000a900473ffffffffffffffffffffffffffffffffffffffff1673ffffffffffffffffffffffffffffffffffffffff1603611685576000818154811061157557611574611d9d565b5b90600052602060002090600502016040518060a00160405290816000820160009054906101000a900473ffffffffffffffffffffffffffffffffffffffff1673ffffffffffffffffffffffffffffffffffffffff1673ffffffffffffffffffffffffffffffffffffffff1681526020016001820160009054906101000a900473ffffffffffffffffffffffffffffffffffffffff1673ffffffffffffffffffffffffffffffffffffffff1673ffffffffffffffffffffffffffffffffffffffff168152602001600282015481526020016003820154815260200160048201548152505083838151811061166b5761166a611d9d565b5b60200260200101819052508180611681906124a2565b9250505b80806001019150506114dc565b50819350505050919050565b606060008251905060008167ffffffffffffffff8111156116c2576116c1611e5e565b5b6040519080825280602002602001820160405280156116f05781602001602082028036833780820191505090505b50905060005b8281101561172b578082828151811061171257611711611d9d565b5b60200260200101818152505080806001019150506116f6565b5060005b828110156118785760005b60018461174791906123a5565b81101561186a57858360018361175d9190611917565b8151811061176e5761176d611d9d565b5b60200260200101518151811061178757611786611d9d565b5b6020026020010151868483815181106117a3576117a2611d9d565b5b6020026020010151815181106117bc576117bb611d9d565b5b6020026020010151131561185d5760008382815181106117df576117de611d9d565b5b60200260200101519050836001836117f79190611917565b8151811061180857611807611d9d565b5b602002602001015184838151811061182357611822611d9d565b5b602002602001018181525050808460018461183e9190611917565b8151811061184f5761184e611d9d565b5b602002602001018181525050505b808060010191505061173a565b50808060010191505061172f565b508092505050919050565b6040518060a00160405280600073ffffffffffffffffffffffffffffffffffffffff168152602001600073ffffffffffffffffffffffffffffffffffffffff1681526020016000815260200160008152602001600081525090565b6000819050919050565b7f4e487b7100000000000000000000000000000000000000000000000000000000600052601160045260246000fd5b6000611922826118de565b915061192d836118de565b9250828201905080821115611945576119446118e8565b5b92915050565b611954816118de565b82525050565b600060208201905061196f600083018461194b565b92915050565b6000604051905090565b600080fd5b600080fd5b611992816118de565b811461199d57600080fd5b50565b6000813590506119af81611989565b92915050565b6000602082840312156119cb576119ca61197f565b5b60006119d9848285016119a0565b91505092915050565b600073ffffffffffffffffffffffffffffffffffffffff82169050919050565b6000611a0d826119e2565b9050919050565b611a1d81611a02565b82525050565b600060a082019050611a386000830188611a14565b611a456020830187611a14565b611a52604083018661194b565b611a5f606083018561194b565b611a6c608083018461194b565b9695505050505050565b611a7f81611a02565b8114611a8a57600080fd5b50565b600081359050611a9c81611a76565b92915050565b60008060408385031215611ab957611ab861197f565b5b6000611ac785828601611a8d565b9250506020611ad8858286016119a0565b9150509250929050565b600060208284031215611af857611af761197f565b5b6000611b0684828501611a8d565b91505092915050565b600081519050919050565b600082825260208201905092915050565b6000819050602082019050919050565b611b4481611a02565b82525050565b611b53816118de565b82525050565b60a082016000820151611b6f6000850182611b3b565b506020820151611b826020850182611b3b565b506040820151611b956040850182611b4a565b506060820151611ba86060850182611b4a565b506080820151611bbb6080850182611b4a565b50505050565b6000611bcd8383611b59565b60a08301905092915050565b6000602082019050919050565b6000611bf182611b0f565b611bfb8185611b1a565b9350611c0683611b2b565b8060005b83811015611c37578151611c1e8882611bc1565b9750611c2983611bd9565b925050600181019050611c0a565b5085935050505092915050565b60006020820190508181036000830152611c5e8184611be6565b905092915050565b6000819050919050565b6000611c8b611c86611c81846119e2565b611c66565b6119e2565b9050919050565b6000611c9d82611c70565b9050919050565b6000611caf82611c92565b9050919050565b611cbf81611ca4565b82525050565b6000602082019050611cda6000830184611cb6565b92915050565b60008060408385031215611cf757611cf661197f565b5b6000611d05858286016119a0565b9250506020611d16858286016119a0565b9150509250929050565b600082825260208201905092915050565b7f42657420696e646578206f7574206f6620626f756e6473000000000000000000600082015250565b6000611d67601783611d20565b9150611d7282611d31565b602082019050919050565b60006020820190508181036000830152611d9681611d5a565b9050919050565b7f4e487b7100000000000000000000000000000000000000000000000000000000600052603260045260246000fd5b7f4e6f2066756e647320746f206469737472696275746520666f7220746869732060008201527f6173736574000000000000000000000000000000000000000000000000000000602082015250565b6000611e28602583611d20565b9150611e3382611dcc565b604082019050919050565b60006020820190508181036000830152611e5781611e1b565b9050919050565b7f4e487b7100000000000000000000000000000000000000000000000000000000600052604160045260246000fd5b6000819050919050565b6000611ea282611e8d565b9150611ead83611e8d565b9250828203905081811260008412168282136000851215161715611ed457611ed36118e8565b5b92915050565b6000611ee582611e8d565b91507f80000000000000000000000000000000000000000000000000000000000000008203611f1757611f166118e8565b5b816000039050919050565b6000611f2d826118de565b9150611f38836118de565b9250828202611f46816118de565b91508282048414831517611f5d57611f5c6118e8565b5b5092915050565b7f4e487b7100000000000000000000000000000000000000000000000000000000600052601260045260246000fd5b6000611f9e826118de565b9150611fa9836118de565b925082611fb957611fb8611f64565b5b828204905092915050565b7f4661696c656420746f207472616e736665722066756e647320746f206669727360008201527f7420706c61636500000000000000000000000000000000000000000000000000602082015250565b6000612020602783611d20565b915061202b82611fc4565b604082019050919050565b6000602082019050818103600083015261204f81612013565b9050919050565b7f4661696c656420746f207472616e736665722066756e647320746f207365636f60008201527f6e6420706c616365000000000000000000000000000000000000000000000000602082015250565b60006120b2602883611d20565b91506120bd82612056565b604082019050919050565b600060208201905081810360008301526120e1816120a5565b9050919050565b60006020820190506120fd6000830184611a14565b92915050565b600080fd5b600080fd5b6000601f19601f8301169050919050565b6121278261210d565b810181811067ffffffffffffffff8211171561214657612145611e5e565b5b80604052505050565b6000612159611975565b9050612165828261211e565b919050565b600067ffffffffffffffff82111561218557612184611e5e565b5b61218e8261210d565b9050602081019050919050565b60005b838110156121b957808201518184015260208101905061219e565b60008484015250505050565b60006121d86121d38461216a565b61214f565b9050828152602081018484840111156121f4576121f3612108565b5b6121ff84828561219b565b509392505050565b600082601f83011261221c5761221b612103565b5b815161222c8482602086016121c5565b91505092915050565b60008151905061224481611989565b92915050565b60008151905061225981611a76565b92915050565b600080600080600080600060e0888a03121561227e5761227d61197f565b5b600088015167ffffffffffffffff81111561229c5761229b611984565b5b6122a88a828b01612207565b975050602088015167ffffffffffffffff8111156122c9576122c8611984565b5b6122d58a828b01612207565b96505060406122e68a828b01612235565b95505060606122f78a828b01612235565b94505060806123088a828b01612235565b93505060a06123198a828b01612235565b92505060c061232a8a828b0161224a565b91505092959891949750929550565b7f496e76616c696420626574207365747465722061646472657373000000000000600082015250565b600061236f601a83611d20565b915061237a82612339565b602082019050919050565b6000602082019050818103600083015261239e81612362565b9050919050565b60006123b0826118de565b91506123bb836118de565b92508282039050818111156123d3576123d26118e8565b5b92915050565b7f4661696c656420746f207472616e736665722066756e647320746f206265745360008201527f6574746572000000000000000000000000000000000000000000000000000000602082015250565b6000612435602583611d20565b9150612440826123d9565b604082019050919050565b6000602082019050818103600083015261246481612428565b9050919050565b6000606082019050612480600083018661194b565b61248d602083018561194b565b61249a604083018461194b565b949350505050565b60006124ad826118de565b91507fffffffffffffffffffffffffffffffffffffffffffffffffffffffffffffffff82036124df576124de6118e8565b5b600182019050919050565b7f426574207072696365206973206e6f7420736574206f7220696e76616c696400600082015250565b6000612520601f83611d20565b915061252b826124ea565b602082019050919050565b6000602082019050818103600083015261254f81612513565b9050919050565b7f496e76616c696420626574207365747465720000000000000000000000000000600082015250565b600061258c601283611d20565b915061259782612556565b602082019050919050565b600060208201905081810360008301526125bb8161257f565b9050919050565b60006040820190506125d7600083018561194b565b6125e4602083018461194b565b9392505050565b7f4e6f7420617574686f72697a656420746f20757064617465207468697320626560008201527f7400000000000000000000000000000000000000000000000000000000000000602082015250565b6000612647602183611d20565b9150612652826125eb565b604082019050919050565b600060208201905081810360008301526126768161263a565b905091905056fea26469706673582212200789b94ba5f43abb1869d4428a226cf2ae6462ff048e9afd26ab33a13f31430c64736f6c63430008180033",
  "linkReferences": {},
  "deployedLinkReferences": {}
}